:020000040800F2
:1000000000500020650200086B0200086F02000823
:10001000B9020008BD020008050300080000000046
:100020000000000000000000000000004D03000878
:10003000510300080000000055030008790A000879
:100040009505000895050008950500089505000828
:100050009505000895050008950500089505000818
:100060009505000895050008950500089505000808
:1000700095050008950500089505000895050008F8
:1000800095050008950500089505000895050008E8
:1000900095050008950500089505000895050008D8
:1000A0009505000859090008950500089505000800
:1000B00071090008950500089505000895050008D8
:1000C00095050008950500089505000895050008A8
:1000D00095050008410C00089505000895050008E5
:1000E000950500089505000895050008000000002A
:1000F0000000000000000000000000000000000000
:1001000000000000000000005FF808F1005000202F
:10011000650200086B0200086F020008B9020008BF
:10012000BD020008050300080000000000000000F8
:1001300000000000000000004D030008510300080B
:100140000000000055030008790A00086903000850
:1001500000B583B000F094F9304B314A1360314A56
:100160001360314B314A03E052F8041B43F8041B7F
:100170002F498B42F8D32A4B1A682E4B9A4200D053
:10018000FEE7284B1A682C4B9A42F9D1234B2B4A95
:1001900013602B4A13602B4B02E0002243F8042B20
:1001A000294A9342F9D3254B1B6813B9244B1B688A
:1001B00003B1FEE700F070F9694601A800F03AF9D2
:1001C000224C234BE41AA410002504E0204B53F8E2
:1001D000253098470135AC42F8DC1E4C1E4BE41A22
:1001E000A410002504E01C4B53F825309847013536
:1001F000AC42F8DC0099019800F082FD0546174CEE
:10020000174BE41AA41004E0013C154B53F82430BA
:100210009847002CF8DC284600F0E8F8BABADECAA5
:10022000000000207400002000000020F4170008E7
:1002300078000020785634123254769878000020E6
:1002400028030020780000202C03002094030008DD
:100250009403000894030008940300089403000822
:100260009403000808B5FFF773FF00BEFEE71EF019
:10027000040F0CBFEFF30880EFF309807146374A93
:1002800010472DE9F04182B004460D46084B5F6BE4
:10029000D3F838809E6A074800F0D4F800954346AA
:1002A0003A463146204600F0FBF800BEFEE700BFAC
:1002B00000ED00E01C17000800BEFEE71EF0040F72
:1002C0000CBFEFF30880EFF309807146244A104712
:1002D0002DE9F04182B004460D46084B5F6BD3F820
:1002E00038809E6A064800F0ADF8009543463A46CD
:1002F0003146204600F0D4F800BEFEE700ED00E0F5
:100300002C1700081EF0040F0CBFEFF30880EFF36A
:1003100009807146134A10472DE9F04182B0044626
:100320000D46084B5F6BD3F838809E6A064800F094
:1003300089F8009543463A463146204600F0B0F829
:1003400000BEFEE700ED00E03817000800BEFEE743
:1003500000BEFEE700BEFEE7704700008302000813
:0A036000D102000819030008FEE7AF
:10036C00F41700080000002078000020F4170008A3
:10037C000000001000000010780000202C0300206A
:08038C00000000100000001049
:10039400054BA3FB00239B09013B044A5360002344
:1003A4009360052313607047D34D621010E000E0A2
:1003B40082B0094B1B680193019BB0F1FF3F00D051
:1003C400013030B1044B1B6813F4803FF9D001387D
:1003D400F7E702B0704700BF10E000E0014B18607F
:1003E400704700BF0C000020FEE7000008B503467C
:1003F4000C4A12685AB10B4A1068033323F0030302
:100404000344094A934206D8064A136008BD054AC4
:1004140006491160EFE700F097FC0C2303604FF0EE
:10042400FF30F3E77C000020004C00202C03002068
:1004340001230360014B0B60704700BF04000020E0
:100444000FB400B583B004AB53F8042B019380219F
:10045400074800F0B9FC002804DC03B05DF804EBA5
:1004640004B070470146024800F004F8F5E700BF05
:10047400840000204FF0FF307047000008B500F002
:1004840089F8024A024B9A6008BD00BF00000008C8
:1004940000ED00E008B500F0A3F808BDF8B5044687
:1004A4000D4617461E462748FFF7CAFF216826480F
:1004B400FFF7C6FF61682548FFF7C2FFA16824481B
:1004C400FFF7BEFFE1682348FFF7BAFF216922481E
:1004D400FFF7B6FF61692148FFF7B2FFA169204821
:1004E400FFF7AEFFE1691F48FFF7AAFF1E48FFF7B9
:1004F400A7FF29461D48FFF7A3FF1D4CE16A1D48CD
:10050400FFF79EFF216B1C48FFF79AFFE16B1B4826
:10051400FFF796FF15F0800F0AD115F4004F0CD1A8
:100524001748FFF78DFF06991648FFF789FFF8BDB6
:1005340039461548FFF784FFEFE731461348FFF7C4
:100544007FFFEDE7001600081016000820160008CB
:1005540030160008401600085016000860160008FF
:100564007016000880160008901600089C160008F3
:1005740000ED00E0AC160008BC160008CC1600081C
:10058400FC16000804170008DC160008EC16000826
:10059400FEE700000F4B1A6842F001021A60596826
:1005A4000D4A0A405A601A6822F0847222F480329A
:1005B4001A601A6822F480221A605A6822F4FE0231
:1005C4005A604FF41F029A60044B4FF000629A6025
:1005D400704700BF001002400000FFF800ED00E08B
:1005E4001F4B5B6803F00C03042B14D0082B16D0AC
:1005F4001BB11C4B1C4A1A6002E01A4B1A4A1A60BF
:10060400174B5B68C3F30313184AD15C154A13688C
:10061400CB4013607047134B134A1A60F0E7104A3B
:1006240053685268C3F38343023312F4803F05D105
:100634000F4A02FB03F30B4A1360E1E7084A5268CE
:1006440012F4003F05D00A4A02FB03F3054A136083
:10065400D6E7054A02FB03F3024A1360D0E700BF62
:10066400001002400C00002000127A004817000815
:1006740000093D0070B582B02F4B9A6942F40072B4
:100684009A619B6903F400730193019B2B4CA3684B
:1006940043F46023A360A36823F00203A360E36A26
:1006A40023F47003E362A36843F00103A3606420AE
:1006B40000F0DCF9A36843F00403A3601F4B9B68BC
:1006C40013F0040FFAD11E494FF4407393FAA3F3C5
:1006D400B3FA83F34FF40072DA4051F8223023F076
:1006E4001F0343F0040341F82230164D4FF000720B
:1006F40092FAA2F3B3FA83F3DA4055F822104FF0DA
:10070400F87393FAA3F0B0FA80F04FF4400424FA9B
:1007140000F0072606FA00F021EA000193FAA3F399
:10072400B3FA83F324FA03F3012404FA03F30B4327
:1007340045F8223002B070BD001002400024014090
:100744002C2401400C24014070B4020900F00F0075
:100754000F4B53F822400F4B53F820300E4A52F8F7
:1007640021001D0E625993FAA3F1B1FA81F18900B7
:100774000F2606FA01F122EA010293FAA3F3B3FA6F
:1007840083F39B0000FA03F31343635170BC704777
:10079400AC1700086C17000858170008030900F08C
:1007A4000F00012909D00A4A52F82320094B53F8B3
:1007B4002030C3F30F2353617047054A52F82320B6
:1007C400044B53F82030C3F30F231361704700BF69
:1007D400AC1700086C17000800B587B05B4B9A692A
:1007E40042F004029A619A6902F004020592059AA1
:1007F4009A6942F008029A619A6902F00802049226
:10080400049A9A6942F010029A619A6902F01002FD
:100814000392039A9A6942F020029A619A6902F05B
:1008240020020292029A9A6942F001029A619A693C
:1008340002F001020192019ADA6942F08052DA610F
:10084400DB6903F080530093009B414B5A6822F00C
:10085400E0625A605A6842F000725A600021084609
:10086400FFF772FF00210120FFF76EFF0021022035
:10087400FFF76AFF00210320FFF766FF0021042031
:10088400FFF762FF00210520FFF75EFF002106202D
:10089400FFF75AFF00211020FFF756FF0021112017
:1008A400FFF752FF02210820FFF74EFF02210B2021
:1008B400FFF74AFF02210C20FFF746FF02210F2019
:1008C400FFF742FF02211220FFF73EFF022115200D
:1008D400FFF73AFF02212F20FFF736FF02213120D4
:1008E400FFF732FF03210720FFF72EFF0321132018
:1008F400FFF72AFF03211620FFF726FF0321182004
:10090400FFF722FF03212D20FFF71EFF03212E20D6
:10091400FFF71AFF00210720FFF740FF00211320F3
:10092400FFF73CFF00211620FFF738FF00211820B5
:10093400FFF734FF00212D20FFF730FF00212E2088
:10094400FFF72CFF07B05DF804FB00BF0010024066
:1009540000000140044B1B6913F0010F03D0024B4C
:100964006FF001021A617047002C01404FF0804380
:100974001B6913F0010F10D010B54FF080436FF0D6
:1009840001021A61054C21780020FFF707FF237844
:10099400B3FA83F35B09237010BD70470401002090
:1009A40008B5284A136823F0070343F002031360D1
:1009B4001368254B1A6842F480221A601A6842F4BC
:1009C40080321A60204B1B6813F4003FFAD01E4A91
:1009D400536823F47C1343F4F8135360136843F00F
:1009E40080731360184B1B6813F0007FFAD0164B0A
:1009F4005A6822F0F0025A605A6822F4E06242F423
:100A040080625A605A6822F460525A605A6822F02E
:100A1400030242F002025A600B4B5B6803F00C03C2
:100A2400082BF9D10948FFF7D9FC074A536823F486
:100A3400404343F400435360536823F480035360FA
:100A440008BD00BF002002400010024000A24A047A
:100A540008B50448FFF79CFC034A136843F00203FB
:100A6400136008BD00A24A0410E000E008B5FFF7D7
:100A74009FFC08BD024A136801331360704700BF2E
:100A840008010020F0B484B0644B9A6942F48042B7
:100A94009A619A6902F480420392039A9A6942F035
:100AA40004029A619A6902F004020292029A9A6913
:100AB40042F001029A619B6903F001030193019BD7
:100AC40057494B68574D95FAA5F2B2FA82F2920053
:100AD4000F2606FA02F223EA020295FAA5F3B3FA04
:100AE40083F39B00092404FA03F31A4395FAA5F34C
:100AF400B3FA83F39B00032404FA03F322EA030208
:100B040095FAA5F3B3FA83F39B0004FA03F31A43AB
:100B140095FAA5F3B3FA83F39B00042707FA03F3CA
:100B240022EA030395FAA5F53F4A92FAA2F5B5FA2B
:100B340085F5AD00AE4023EA060392FAA2F5B5FAB4
:100B440085F5AD0007FA05F52B4392FAA2F5B5FA3F
:100B540085F5AD0004FA05F523EA050392FAA2F23D
:100B6400B2FA82F2920004FA02F213434B60CB68A9
:100B740023F4802323F480632C4A92FAA2F2B2FA7B
:100B840082F2012404FA02F21343CB6001F54051CE
:100B9400CB6843F00C03CB60CB6823F4B053CB6039
:100BA4000B6923F440530B614B6923F440734B618D
:100BB4001F4B1B6803EB830303EB83038000B3FB2E
:100BC400F0F31C4CA4FB0302520902FA07F080B2B2
:100BD400642505FB1233BB403233A4FB0323C3F368
:100BE4004F1303F0F002024492B203F00F031344D4
:100BF4009BB28B60104B002283F8252320225A607D
:100C0400CB681343CB60CB6843F01003CB60CB6855
:100C140043F40053CB6004B0F0BC704700100240B2
:100C2400000801400200020404000404000404005B
:100C34000C0000201F85EB5100E100E0284BDB682D
:100C440013F0800F14D0264B1B6813F0800F0FD0C5
:100C5400244B1B88244A1288934226D30023224A19
:100C64001380204A13801E4AD36823F08003D36084
:100C74001B4B1B6813F0200F04D01C4B1B88E3B1E3
:100C8400174B5B68164B1B6813F0100F27D082B00C
:100C9400174B1A88154B1A80114B1A680192019A46
:100CA4005B680193019B02B07047591C0D4A118087
:100CB400104AD25C0A4B5A60DAE70D4B1B88FE2BB4
:100CC40005D9074B5B680A4B00221A80DAE7591CE6
:100CD400074A1180024A5168074AD154D2E7704743
:100CE40000380140180100201E0100201A010020D4
:100CF4001C010020200200202001002008B5FFF77D
:100D04004FFEFFF7A5FEFFF767FD4FF4E130FFF755
:100D1400B9FEFFF7AFFC01210720FFF73FFD0121DA
:100D24001320FFF73BFD01211620FFF737FD0121BA
:100D34001720FFF733FD01211820FFF72FFD0121B4
:100D44001920FFF72BFDFEE7014B1868704700BF21
:100D5400100000200A44914200F1FF3300D1704793
:100D640010B511F8014B914203F8014FF9D110BDB0
:100D740030B5141E05469BB0184605DA8B234FF098
:100D8400FF302B601BB030BD4FF40273ADF80C3054
:100D94000CBF234604F1FF33029305934FF6FF7310
:100DA400024600910491ADF80E3069461E9B284618
:100DB40000F074F8431CBCBF8B232B60002CE1D0E3
:100DC4000022009B1A70DDE707B5009313460A461C
:100DD400014603480068FFF7CBFF03B05DF804FB4E
:100DE400100000202DE9F0478E6882469E420C4692
:100DF40090461F4638D88A8912F4906F32D02568FD
:100E040009690133A5EB010965694B4405EB450507
:100E140005EBD5756D109D4238BF1D46530531D580
:100E2400294600F045FB064650B90C234FF0FF302D
:100E3400CAF80030A38943F04003A381BDE8F087DA
:100E44004A462169FFF786FFA38923F4906343F0A0
:100E54008003A38126614E4426603E466561A5EB6E
:100E64000905A560BE4200D93E4632464146206887
:100E740000F0B8FAA36822689B1B32440020A360E8
:100E84002260DBE72A4600F06DFB06460028E1D12C
:100E94005046216900F0C0FAC7E700002DE9F04F81
:100EA40098468B8907461B060D4614469DB00ED501
:100EB4000B6963B9402100F0FBFA2860286120B96E
:100EC4000C233B604FF0FF30D1E040236B610023E3
:100ED400099320238DF8293030234FF00109CDF8F0
:100EE4000C80DFF8A4818DF82A3023469A4613F843
:100EF400012B0AB1252AF9D1BAEB040B0BD05B46BE
:100F0400224629463846FFF76DFF013000F0AA80DB
:100F1400099A5A4409929AF80030002B00F0A280F2
:100F240000234FF0FF32CDE905230AF1010A0493AF
:100F340007938DF853301A935446052214F8011B75
:100F4400514800F041FA049AD8B9D00644BF20238E
:100F54008DF85330110744BF2B238DF853309AF882
:100F640000302A2B15D0544600204FF00A0C079A63
:100F7400214611F8013B303B092B4ED9B0B1079201
:100F840014E0A0EB080309FA03F31343A246049305
:100F9400D2E7039B191D1B680391002BBBBF5B4267
:100FA40042F0020207930793B8BF049223782E2BD2
:100FB4000CD163782A2B35D1039B02341A1D1B688C
:100FC4000392002BB8BF4FF0FF330593DFF8C8A09E
:100FD40003225046217800F0F7F940B14023A0EBFA
:100FE4000A0003FA00F0049B01340343049314F849
:100FF400011B062225488DF8281000F0E5F9002889
:1010040038D0234B1BBB039B073323F00703083360
:101014000393099B3344099367E70C4601200CFBB7
:101024000232A5E700234FF00A0C19460134059358
:10103400204610F8012B303A092A03D9002BC5D0D9
:101044000591C3E7044601230CFB0121F0E703AB40
:1010540000932A4638460F4B04A9AFF30080421C84
:101064000646D6D1AB895B063FF52CAF09981DB077
:10107400BDE8F08F03AB00932A463846054B04A91C
:1010840000F07CF8EBE700BFC0170008CA1700089F
:1010940000000000E90D0008C61700082DE9F0471C
:1010A400164699468A680B6907469342B8BF1346A9
:1010B400336091F843200C46DDF820800AB10133F7
:1010C40033602368990642BF33680233336025686E
:1010D40015F0060506D104F1190AE36832689B1A73
:1010E400AB4228DC94F84320131E226818BF012366
:1010F40092062DD44946384604F14302C0470130D4
:1011040020D02368E56803F00603042B18BF0025EC
:1011140032684FF00006A36808BFAD1A226908BF01
:1011240025EAE5759342C4BF9B1AED181A34B542FB
:101134001AD1002008E00123524649463846C047E8
:10114400013003D14FF0FF30BDE8F0870135C4E72B
:101154003020E11881F843005A1C94F845102244C9
:10116400023382F84310C5E7012322464946384634
:10117400C0470130E6D00136D9E700002DE9FF472A
:101184000C46277E9146782F80469A460C9904F1A6
:10119400430207D8622F0AD8002F00F0D980582FB5
:1011A40000F0A48004F1420684F842703AE0A7F10A
:1011B4006303152BF6D801A050F823F01912000888
:1011C4002D120008A9110008A9110008A91100088E
:1011D400A91100082D120008A9110008A91100087E
:1011E400A9110008A91100083B1300085D120008AA
:1011F4001D130008A9110008A91100085D130008B7
:10120400A91100085D120008A9110008A91100081D
:10121400251300080B6804F142061A1D1B680A60B6
:1012240084F842300123A4E0256808682E0600F102
:1012340004030AD505680B60002D03DA2D236D42E3
:1012440084F843300A235E4819E015F0400F05681E
:101254000B6018BF2DB2EFE70B682568181D0860F6
:10126400280601D51D6802E06906FBD51D886F2F8D
:101274000CBF08230A235248002184F843106668EF
:10128400002EA8BF2168A660A4BF21F0040121603C
:101294000DB9002E4DD01646B5FBF3F103FB1157E3
:1012A400C75D06F8017D2F46BB420D46F4D9082BD5
:1012B4000BD12368DF0708D5236961689942DEBF33
:1012C400302306F8013C06F1FF36921B22614B469F
:1012D40021464046CDF800A003AAFFF7DFFE013007
:1012E4004CD14FF0FF3004B0BDE8F087344884F8A7
:1012F40045700E68236856F8045B1F060E6014D50B
:10130400D90744BF43F0200323601DB9236823F0A9
:10131400200323601023AFE7236843F020032360F6
:101324007823284884F84530E3E75E0648BFADB229
:10133400E6E71646BBE70B6826681D1D60690D606D
:1013440035061B6801D5186002E07106FBD51880CC
:10135400002316462361BAE70B681A1D0A601E684B
:1013640000213046626800F02FF808B1801B6060ED
:1013740063682361002384F84330A8E73246494672
:1013840040462369D0470130ABD023689B0713D470
:10139400E068039B9842B8BF1846A4E7012332468D
:1013A40049464046D04701309BD00135E368039954
:1013B4005B1AAB42F2DCEBE7002504F11906F5E712
:1013C400D1170008E2170008034610B5C9B2024459
:1013D4009342184601D1002003E0047801338C4283
:1013E400F6D110BD884210B501EB020402D9844243
:1013F400234607D8431EA14208D011F8012B03F855
:10140400012FF8E7014602448A4200D110BD13F8C7
:10141400014D02F8014DF7E738B50546002943D0E0
:1014240051F8043C0C1F002BB8BFE41800F0D0F8AE
:101434001E4A1368104633B9636014602846BDE839
:10144400384000F0CBB8A3420AD92168621893420D
:1014540001BF1A685B685218226063600460EDE79C
:101464001A465B680BB1A342FAD911685018A0421E
:101474000BD120680144501883421160DED11868F2
:101484005B68014411605360D8E702D90C232B60D8
:10149400D4E7206821188B4201BF19685B680918DA
:1014A400216063605460C9E738BD00BF0C010020AF
:1014B400F8B5CD1C25F0030508350C2D38BF0C25D7
:1014C400002D064601DBA94203D90C23336000201A
:1014D400F8BD00F07DF821490A6814469CB9204FF4
:1014E4003B6823B92146304600F062F8386029464B
:1014F400304600F05DF8431C23D10C2330463360A2
:1015040000F06CF8E3E723685B1B17D40B2B03D9BB
:1015140023601C44256004E06368A2420CBF0B6096
:101524005360304600F05AF804F10B00231D20F0FC
:101534000700C21ACCD01B1AA350C9E7224664681C
:10154400CCE7C41C24F00304A042E3D0211A3046A3
:1015540000F02EF80130DDD1CFE700BF0C010020F0
:1015640010010020F8B5074614460E4621B911466D
:10157400BDE8F840FFF79CBF22B9FFF74DFF2546B1
:101584002846F8BD00F030F8A0420FD22146384674
:10159400FFF78EFF05460028F2D031462246FFF7BA
:1015A400D9FB31463846FFF737FFE9E73546E7E729
:1015B40038B50023054D044608462B60FEF716FF98
:1015C400431C02D12B6803B1236038BD14010020F1
:1015D400014800F011B800BF23030020014800F0C7
:1015E4000CB800BF2303002051F8043C181F002B43
:1015F400BCBF0B58C0187047704770475374616381
:101604006B206672616D653A0A000000205230203A
:101614003D2020253038580A000000002052312097
:101624003D2020253038580A000000002052322086
:101634003D2020253038580A000000002052332075
:101644003D2020253038580A000000002052313255
:10165400203D20253038580A00000000204C52203C
:101664003D2020253038580A000000002050432037
:101674003D2020253038580A0000000020505352E5
:10168400203D20253038580A000000004653522FD0
:101694004641523A0A0000002043465352203D205E
:1016A40020253038580A00002048465352203D2057
:1016B40020253038580A00002044465352203D204B
:1016C40020253038580A00002041465352203D203E
:1016D40020253038580A0000204D4D464152203D07
:1016E40020253038580A00002042464152203D202F
:1016F40020253038580A00004D6973630A00000041
:10170400204C522F4558435F52455455524E3D206C
:10171400253038580A0000005B48617264466175E0
:101724006C745D0A000000005B4275734661756C61
:10173400745D0A005B55736167654661756C745D21
:101744000A00000000000000000000000102030481
:10175400060708090000000004000000080000005B
:101764000100000009000000010100000202000065
:1017740004040000080800001010000020200000ED
:1017840040400000808000000100010402000204C7
:1017940004000404080008041000100420002004BD
:1017A400400040048000800400080140000C014017
:1017B400001001400014014000180140232D302B7B
:1017C4002000686C4C00656667454647003031323E
:1017D4003334353637383941424344454600303195
:0F17E400323334353637383961626364656600F5
:1017F4007856341280000020000000000024F40019
:1018040014000020000000000000000000000000A0
:1018140000000000000000000000000000000000C4
:1018240000000000000000000000000000000000B4
:1018340000000000000000000000000000000000A4
:101844000000000000000000000000000000000094
:101854000000000000000000000000000000000084
:081864000000000032547698E8
:04000005080001519D
:00000001FF
